{
  "contractName": "Lottery",
  "abi": [
    {
      "constant": true,
      "inputs": [],
      "name": "round",
      "outputs": [
        {
          "name": "",
          "type": "uint256"
        }
      ],
      "payable": false,
      "stateMutability": "view",
      "type": "function"
    },
    {
      "constant": true,
      "inputs": [],
      "name": "manager",
      "outputs": [
        {
          "name": "",
          "type": "address"
        }
      ],
      "payable": false,
      "stateMutability": "view",
      "type": "function"
    },
    {
      "constant": true,
      "inputs": [],
      "name": "betMoney",
      "outputs": [
        {
          "name": "",
          "type": "uint256"
        }
      ],
      "payable": false,
      "stateMutability": "view",
      "type": "function"
    },
    {
      "constant": true,
      "inputs": [],
      "name": "winner",
      "outputs": [
        {
          "name": "",
          "type": "address"
        }
      ],
      "payable": false,
      "stateMutability": "view",
      "type": "function"
    },
    {
      "constant": true,
      "inputs": [
        {
          "name": "",
          "type": "uint256"
        }
      ],
      "name": "players",
      "outputs": [
        {
          "name": "",
          "type": "address"
        }
      ],
      "payable": false,
      "stateMutability": "view",
      "type": "function"
    },
    {
      "inputs": [
        {
          "name": "_betMoney",
          "type": "uint256"
        }
      ],
      "payable": false,
      "stateMutability": "nonpayable",
      "type": "constructor"
    },
    {
      "constant": false,
      "inputs": [],
      "name": "play",
      "outputs": [],
      "payable": true,
      "stateMutability": "payable",
      "type": "function"
    },
    {
      "constant": false,
      "inputs": [],
      "name": "draw",
      "outputs": [],
      "payable": false,
      "stateMutability": "nonpayable",
      "type": "function"
    },
    {
      "constant": false,
      "inputs": [],
      "name": "drawback",
      "outputs": [],
      "payable": false,
      "stateMutability": "nonpayable",
      "type": "function"
    },
    {
      "constant": true,
      "inputs": [],
      "name": "getPlayersCount",
      "outputs": [
        {
          "name": "",
          "type": "uint256"
        }
      ],
      "payable": false,
      "stateMutability": "view",
      "type": "function"
    },
    {
      "constant": true,
      "inputs": [],
      "name": "getBalance",
      "outputs": [
        {
          "name": "",
          "type": "uint256"
        }
      ],
      "payable": false,
      "stateMutability": "view",
      "type": "function"
    }
  ],
  "bytecode": "0x608060405234801561001057600080fd5b506040516020806108e983398101806040528101908080519060200190929190505050336000806101000a81548173ffffffffffffffffffffffffffffffffffffffff021916908373ffffffffffffffffffffffffffffffffffffffff160217905550806004819055505061085f8061008a6000396000f3006080604052600436106100a4576000357c0100000000000000000000000000000000000000000000000000000000900463ffffffff1680630eecae21146100a957806312065fe0146100c0578063146ca531146100eb5780632409dfa214610116578063481c6a751461012d578063927a03351461018457806393e84cd9146101af578063a76594bf146101b9578063dfbf53ae146101e4578063f71d96cb1461023b575b600080fd5b3480156100b557600080fd5b506100be6102a8565b005b3480156100cc57600080fd5b506100d5610524565b6040518082815260200191505060405180910390f35b3480156100f757600080fd5b50610100610543565b6040518082815260200191505060405180910390f35b34801561012257600080fd5b5061012b610549565b005b34801561013957600080fd5b5061014261067d565b604051808273ffffffffffffffffffffffffffffffffffffffff1673ffffffffffffffffffffffffffffffffffffffff16815260200191505060405180910390f35b34801561019057600080fd5b506101996106a2565b6040518082815260200191505060405180910390f35b6101b76106a8565b005b3480156101c557600080fd5b506101ce61077c565b6040518082815260200191505060405180910390f35b3480156101f057600080fd5b506101f9610789565b604051808273ffffffffffffffffffffffffffffffffffffffff1673ffffffffffffffffffffffffffffffffffffffff16815260200191505060405180910390f35b34801561024757600080fd5b50610266600480360381019080803590602001909291905050506107af565b604051808273ffffffffffffffffffffffffffffffffffffffff1673ffffffffffffffffffffffffffffffffffffffff16815260200191505060405180910390f35b60008060009054906101000a900473ffffffffffffffffffffffffffffffffffffffff1673ffffffffffffffffffffffffffffffffffffffff163373ffffffffffffffffffffffffffffffffffffffff1614151561030557600080fd5b600060018054905011151561031957600080fd5b600244426001805490506040516020018084815260200183815260200182815260200193505050506040516020818303038152906040526040518082805190602001908083835b6020831015156103855780518252602082019150602081019050602083039250610360565b6001836020036101000a0380198251168184511680821785525050505050509050019150506020604051808303816000865af11580156103c9573d6000803e3d6000fd5b5050506040513d60208110156103de57600080fd5b81019080805190602001909291905050506001900490506001805490508181151561040557fe5b06905060018181548110151561041757fe5b9060005260206000200160009054906101000a900473ffffffffffffffffffffffffffffffffffffffff16600360006101000a81548173ffffffffffffffffffffffffffffffffffffffff021916908373ffffffffffffffffffffffffffffffffffffffff160217905550600360009054906101000a900473ffffffffffffffffffffffffffffffffffffffff1673ffffffffffffffffffffffffffffffffffffffff166108fc3073ffffffffffffffffffffffffffffffffffffffff16319081150290604051600060405180830381858888f19350505050158015610501573d6000803e3d6000fd5b506001600061051091906107ed565b600160026000828254019250508190555050565b60003073ffffffffffffffffffffffffffffffffffffffff1631905090565b60025481565b60008060009054906101000a900473ffffffffffffffffffffffffffffffffffffffff1673ffffffffffffffffffffffffffffffffffffffff163373ffffffffffffffffffffffffffffffffffffffff161415156105a657600080fd5b60006001805490501115156105ba57600080fd5b600090505b60018054905081101561065b576001818154811015156105db57fe5b9060005260206000200160009054906101000a900473ffffffffffffffffffffffffffffffffffffffff1673ffffffffffffffffffffffffffffffffffffffff166108fc6004549081150290604051600060405180830381858888f1935050505015801561064d573d6000803e3d6000fd5b5080806001019150506105bf565b6001600061066991906107ed565b600160026000828254019250508190555050565b6000809054906101000a900473ffffffffffffffffffffffffffffffffffffffff1681565b60045481565b6000809054906101000a900473ffffffffffffffffffffffffffffffffffffffff1673ffffffffffffffffffffffffffffffffffffffff163373ffffffffffffffffffffffffffffffffffffffff161415151561070457600080fd5b6004543414151561071457600080fd5b60013390806001815401808255809150509060018203906000526020600020016000909192909190916101000a81548173ffffffffffffffffffffffffffffffffffffffff021916908373ffffffffffffffffffffffffffffffffffffffff16021790555050565b6000600180549050905090565b600360009054906101000a900473ffffffffffffffffffffffffffffffffffffffff1681565b6001818154811015156107be57fe5b906000526020600020016000915054906101000a900473ffffffffffffffffffffffffffffffffffffffff1681565b508054600082559060005260206000209081019061080b919061080e565b50565b61083091905b8082111561082c576000816000905550600101610814565b5090565b905600a165627a7a72305820010bdb6e951e24768039d437c1da64aaef5f40c7d22de08b63a4ff892fa319840029",
  "source": "pragma solidity ^0.4.0;\n\ncontract Lottery {\n    address public manager;\n    address[] public players;\n    uint public round;\n    address public winner;\n    uint public betMoney;\n\n    constructor(uint _betMoney) {\n        manager=msg.sender;\n        betMoney=_betMoney;\n    }\n\n    modifier onlyManager() {\n        require(msg.sender==manager);\n        _;\n    }\n\n    function play() payable public {\n        require(msg.sender!=manager);\n        require(msg.value==betMoney);\n        players.push(msg.sender);\n    }\n\n    function draw() public onlyManager {\n        require(players.length>0);\n        uint i=uint(sha256(abi.encodePacked(block.difficulty,now,players.length)));\n        i=i%players.length;\n        winner=players[i];\n        winner.transfer(address(this).balance);\n        delete players;\n        round+=1;\n    }\n\n    function drawback() public onlyManager {\n        require(players.length>0);\n        for(uint i=0;i<players.length;i++) players[i].transfer(betMoney);\n        delete players;\n        round+=1;\n    }\n\n    function getPlayersCount() public view returns (uint) {\n        return players.length;\n    }\n\n    function getBalance() public view returns (uint) {\n        return address(this).balance;\n    }\n}\n",
  "sourcePath": "/Users/zmx/190209/contracts/Lottery.sol",
  "compiler": {
    "name": "solc",
    "version": "0.4.24+commit.e67f0147.Emscripten.clang"
  },
  "schemaVersion": "2.0.1",
  "updatedAt": "2019-02-10T12:16:30.594Z"
}