{
  "contractName": "Lottery",
  "abi": [
    {
      "inputs": [],
      "payable": false,
      "stateMutability": "nonpayable",
      "type": "constructor"
    },
    {
      "constant": false,
      "inputs": [],
      "name": "enter",
      "outputs": [],
      "payable": true,
      "stateMutability": "payable",
      "type": "function"
    },
    {
      "constant": false,
      "inputs": [],
      "name": "pickWinner",
      "outputs": [
        {
          "name": "winner",
          "type": "address"
        }
      ],
      "payable": false,
      "stateMutability": "nonpayable",
      "type": "function"
    },
    {
      "constant": false,
      "inputs": [],
      "name": "returnMoney",
      "outputs": [],
      "payable": false,
      "stateMutability": "nonpayable",
      "type": "function"
    },
    {
      "constant": true,
      "inputs": [],
      "name": "getPlayers",
      "outputs": [
        {
          "name": "_players",
          "type": "address[]"
        }
      ],
      "payable": false,
      "stateMutability": "view",
      "type": "function"
    },
    {
      "constant": true,
      "inputs": [],
      "name": "getBalance",
      "outputs": [
        {
          "name": "bal",
          "type": "uint256"
        }
      ],
      "payable": false,
      "stateMutability": "view",
      "type": "function"
    }
  ],
  "bytecode": "0x608060405234801561001057600080fd5b50336000806101000a81548173ffffffffffffffffffffffffffffffffffffffff021916908373ffffffffffffffffffffffffffffffffffffffff1602179055506106b1806100606000396000f30060806040526004361061006d576000357c0100000000000000000000000000000000000000000000000000000000900463ffffffff16806312065fe0146100725780635d495aea1461009d5780638b5b9ccc146100f45780639311931214610160578063e97dcb6214610177575b600080fd5b34801561007e57600080fd5b50610087610181565b6040518082815260200191505060405180910390f35b3480156100a957600080fd5b506100b26101a0565b604051808273ffffffffffffffffffffffffffffffffffffffff1673ffffffffffffffffffffffffffffffffffffffff16815260200191505060405180910390f35b34801561010057600080fd5b50610109610333565b6040518080602001828103825283818151815260200191508051906020019060200280838360005b8381101561014c578082015181840152602081019050610131565b505050509050019250505060405180910390f35b34801561016c57600080fd5b506101756103c1565b005b61017f6104c8565b005b60003073ffffffffffffffffffffffffffffffffffffffff1631905090565b6000806000809054906101000a900473ffffffffffffffffffffffffffffffffffffffff1673ffffffffffffffffffffffffffffffffffffffff163373ffffffffffffffffffffffffffffffffffffffff161415156101fe57600080fd5b6000600180549050111561032b5760018054905061021a6105a2565b81151561022357fe5b06905060003073ffffffffffffffffffffffffffffffffffffffff163111156102de5760018181548110151561025557fe5b9060005260206000200160009054906101000a900473ffffffffffffffffffffffffffffffffffffffff1673ffffffffffffffffffffffffffffffffffffffff166108fc3073ffffffffffffffffffffffffffffffffffffffff16319081150290604051600060405180830381858888f193505050501580156102dc573d6000803e3d6000fd5b505b6001818154811015156102ed57fe5b9060005260206000200160009054906101000a900473ffffffffffffffffffffffffffffffffffffffff16915060006001816103299190610634565b505b600091505090565b606060018054806020026020016040519081016040528092919081815260200182805480156103b757602002820191906000526020600020905b8160009054906101000a900473ffffffffffffffffffffffffffffffffffffffff1673ffffffffffffffffffffffffffffffffffffffff168152602001906001019080831161036d575b5050505050905090565b60008060009054906101000a900473ffffffffffffffffffffffffffffffffffffffff1673ffffffffffffffffffffffffffffffffffffffff163373ffffffffffffffffffffffffffffffffffffffff1614151561041e57600080fd5b600090505b6001805490508110156104c55760018181548110151561043f57fe5b9060005260206000200160009054906101000a900473ffffffffffffffffffffffffffffffffffffffff1673ffffffffffffffffffffffffffffffffffffffff166108fc670de0b6b3a76400009081150290604051600060405180830381858888f193505050501580156104b7573d6000803e3d6000fd5b508080600101915050610423565b50565b6000809054906101000a900473ffffffffffffffffffffffffffffffffffffffff1673ffffffffffffffffffffffffffffffffffffffff163373ffffffffffffffffffffffffffffffffffffffff161415151561052457600080fd5b670de0b6b3a76400003414151561053a57600080fd5b60013390806001815401808255809150509060018203906000526020600020016000909192909190916101000a81548173ffffffffffffffffffffffffffffffffffffffff021916908373ffffffffffffffffffffffffffffffffffffffff16021790555050565b60004442600160405180848152602001838152602001828054801561061c57602002820191906000526020600020905b8160009054906101000a900473ffffffffffffffffffffffffffffffffffffffff1673ffffffffffffffffffffffffffffffffffffffff16815260200190600101908083116105d2575b50509350505050604051809103902060019004905090565b81548183558181111561065b5781836000526020600020918201910161065a9190610660565b5b505050565b61068291905b8082111561067e576000816000905550600101610666565b5090565b905600a165627a7a723058209fb044c5c9b29fabf9dfa5213b44060c0ebbc0ebf622841b43a69372b26117170029",
  "source": "pragma solidity ^0.4.4;\n\n\ncontract Lottery {\n    address manager;\n    address[] players;\n\n    function Lottery() {\n        manager=msg.sender;\n    }\n    \n    function enter() payable public {\n        require(msg.sender!=manager);\n        require(msg.value==1 ether);\n        players.push(msg.sender);\n    }\n    \n    function random() view private returns (uint x) {\n        x=uint(keccak256(block.difficulty,now,players));\n    }\n    \n    function pickWinner() public onlyManager returns (address winner) {\n        if(players.length > 0) {\n            uint i=random()%players.length;\n            if(this.balance > 0) players[i].transfer(this.balance);\n            winner=players[i];\n            players.length=0;\n        }\n        winner=0;\n    }\n    \n    modifier onlyManager() {\n        require(msg.sender==manager);\n        _;\n    }\n    \n    function returnMoney() public onlyManager {\n        for(uint i=0; i<players.length; i++) {\n            players[i].transfer(1 ether);\n        }\n    }\n    \n    function getPlayers() view public returns (address[] _players) {\n        _players=players;\n    }\n    \n    function getBalance() view public returns (uint bal) {\n        bal=this.balance;\n    }\n}\n",
  "sourcePath": "/Users/zmx/180907a/contracts/Lottery.sol",
  "compiler": {
    "name": "solc",
    "version": "0.4.23+commit.124ca40d.Emscripten.clang"
  },
  "schemaVersion": "2.0.0",
  "updatedAt": "2018-09-07T10:06:00.523Z"
}